:020000040800F2
:1000000060060020B1010008B9010008BB0100082A
:10001000BD010008BF010008C10100080000000088
:10002000000000000000000000000000C301000804
:10003000C501000800000000C7010008C901000850
:10004000CB010008CB010008CB010008CB01000860
:10005000CB010008CB010008CB010008CB01000850
:10006000CB010008CB010008CB010008CB01000840
:10007000CB010008CB010008CB010008CB01000830
:10008000CB010008CB010008CB010008CB01000820
:10009000CB010008CB010008CB010008CB01000810
:1000A000CB010008CB010008CB010008CB01000800
:1000B000CB010008CB010008CB010008CB010008F0
:1000C000CB010008CB010008CB010008CB010008E0
:1000D000CB010008CB010008CB010008CB010008D0
:1000E000CB010008CB010008CB010008CB010008C0
:1000F000CB010008CB010008CB010008CB010008B0
:10010000CB010008CB010008CB010008CB0100089F
:10011000CB010008CB010008CB010008CB0100088F
:10012000CB010008CB010008CB010008CB0100087F
:1001300000F002F800F02CF80AA090E8000C8244CD
:100140008344AAF10107DA4501D100F021F8AFF2AA
:10015000090EBAE80F0013F0010F18BFFB1A43F0A5
:10016000010318472803000038030000002300247F
:1001700000250026103A28BF78C1FBD8520728BFB7
:1001800030C148BF0B6070471FB51FBD10B510BD13
:1001900000F031F81146FFF7F7FF00F07BF800F0B0
:1001A0004FF803B4FFF7F2FF03BC00F057F800006C
:1001B0000948804709480047FEE7FEE7FEE7FEE7FB
:1001C000FEE7FEE7FEE7FEE7FEE7FEE70448054937
:1001D000054A064B704700006B0200083101000819
:1001E0006000002060060020600200206002002005
:1001F000704770477047754600F02CF8AE46050012
:100200006946534620F00700854618B020B5FFF731
:10021000DDFFBDE820404FF000064FF000074FF033
:1002200000084FF0000B21F00701AC46ACE8C00914
:10023000ACE8C009ACE8C009ACE8C0098D4670471D
:1002400010B50446AFF300802046BDE81040FFF72C
:10025000A8BF000000487047000000200149182096
:10026000ABBEFEE72600020070477047002100E0A9
:10027000491C42F2107242438A42F9D8704700008A
:1002800000B502A000F088F800BD00000A7269679E
:100290006874000088B03448806940F00800324932
:1002A00088610846806940F0100088614FF0443052
:1002B0002E49086048604FF033302D490860091D11
:1002C000086000BF00253821002000F07FF80F21D2
:1002D000002000F07BF80621002000F077F80121D3
:1002E000002000F073F823A124A000F08FF818B1CB
:1002F00023A000F051F802E022A000F04DF831E018
:100300001A488068C6B206F0800040B306F03F0489
:100310001F2C00D1D6E7252C0ED1C021002000F0E3
:1003200055F800200DF80500694617A000F06EF89A
:10033000A8B1FFF7A5FF12E006F0400020B1144875
:10034000005D0DF8050003E01248005D0DF80500A2
:100350001DF80510012000F039F8681CC5B21920FD
:10036000FFF784FFCCE700000010024000100140BE
:10037000000C014061626364000000006162630080
:10038000796573004E6F0000726967687400000041
:10039000610400083804000830B50546002410E068
:1003A000285D0A2806D1C021002000F00FF8601C4B
:1003B000C4B206E0295D012000F008F8601CC4B258
:1003C00000BF285D0028EBD130BD000010B5044609
:1003D0000B460D480068002040EAC420184303F093
:1003E000180140EA4120084908600815091D086005
:1003F0000120FFF73BFF4FF480600349083108609C
:100400000120FFF733FF10BD0C0C014030B5024650
:100410000B460020002109E0545C2CB9545C5D5C63
:10042000AC4201D1012005E04C1CE1B2545C5D5CA2
:10043000AC42F1D000BF30BD3132717761737A7850
:100440003334657264666376353674796768626ED4
:10045000373875696A6B6D0039306F706C00000059
:10046000002140515741535A582324455244464392
:1004700056255E54594748424E262A55494A4B4D07
:100480000028294F504C0000000000009C04000888
:0C04900000000020600600006C01000865
:04000005080001B13D
:00000001FF
