:020000040800F2
:1000000060060020B1010008B9010008BB0100082A
:10001000BD010008BF010008C10100080000000088
:10002000000000000000000000000000C301000804
:10003000C501000800000000C7010008C901000850
:10004000CB010008CB010008CB010008CB01000860
:10005000CB010008CB010008CB010008CB01000850
:10006000CB010008CB010008CB010008CB01000840
:10007000CB010008CB010008CB010008CB01000830
:10008000CB010008CB010008CB010008CB01000820
:10009000CB010008CB010008CB010008CB01000810
:1000A000CB010008CB010008CB010008CB01000800
:1000B000CB010008CB010008CB010008CB010008F0
:1000C000CB010008CB010008CB010008CB010008E0
:1000D000CB010008CB010008CB010008CB010008D0
:1000E000CB010008CB010008CB010008CB010008C0
:1000F000CB010008CB010008CB010008CB010008B0
:10010000CB010008CB010008CB010008CB0100089F
:10011000CB010008CB010008CB010008CB0100088F
:10012000CB010008CB010008CB010008CB0100087F
:1001300000F002F800F02CF80AA090E8000C8244CD
:100140008344AAF10107DA4501D100F021F8AFF2AA
:10015000090EBAE80F0013F0010F18BFFB1A43F0A5
:10016000010318473C0300004C0300000023002457
:1001700000250026103A28BF78C1FBD8520728BFB7
:1001800030C148BF0B6070471FB51FBD10B510BD13
:1001900000F063F81146FFF7F7FF00F0A3F800F056
:1001A00081F803B4FFF7F2FF03BC00F089F8000008
:1001B0000948804709480047FEE7FEE7FEE7FEE7FB
:1001C000FEE7FEE7FEE7FEE7FEE7FEE70448054937
:1001D000054A064B70470000CF02000831010008B5
:1001E0006000002060060020600200206002002005
:1001F00010B5203AC0F00B80B1E81850203AA0E8C2
:100200001850B1E81850A0E81850BFF4F5AF5FEAF5
:10021000027C24BFB1E81850A0E8185044BF18C9A8
:1002200018C0BDE810405FEA827C24BF51F8043B4F
:1002300040F8043B08BF7047D20728BF31F8023BA3
:1002400048BF11F8012B28BF20F8023B48BF00F837
:10025000012B7047704770477047754600F02CF8C7
:10026000AE4605006946534620F00700854618B0A3
:1002700020B5FFF7ABFFBDE820404FF000064FF080
:1002800000074FF000084FF0000B21F00701AC46CB
:10029000ACE8C009ACE8C009ACE8C009ACE8C009EA
:1002A0008D46704710B50446AFF300802046BDE888
:1002B0001040FFF776BF00000048704700000020A4
:1002C00001491820ABBEFEE72600020070477047C8
:1002D000002100E0491C42F2107242438A42F9D8E0
:1002E0007047000098B03DA103C9CDE916012C224A
:1002F0003CA10BA8FFF77CFF2C2245A16846FFF725
:1003000077FF4E48806940F008004C4988610846F4
:10031000806940F0100088614FF04430484908601F
:1003200048604FF0333047490860091D086000BF3E
:10033000382300221146104600F086F80F230022D1
:100340001146104600F080F80623002211461046A0
:1003500000F07AF8012300221146104600F074F8EC
:10036000352300221146012000F06EF847230022B9
:100370001146012000F068F869230022114601208F
:1003800000F062F828E02E488068C5B205F08000D1
:10039000F8B105F03F04252C06D1C02300221146F8
:1003A000104600F051F814E01F2C00D1C0E705F012
:1003B000400038B11DF8043000221146012000F041
:1003C00043F806E00BA8035D00221146012000F06F
:1003D0003BF81920FFF77CFFD5E70000070800086D
:1003E0001C0807003132717761737A783334657293
:1003F00064666376353674796768626E3738756916
:100400006A6B6D0039306F706C00000000000000F6
:100410002140515741535A5823244552444643568C
:10042000255E54594748424E262A55494A4B4D00AD
:1004300028294F504C00000000000000001002402E
:1004400000100140000C014070B50446134D2D68AA
:10045000002545EAC42545EA412545EA82251D4394
:1004600003F0180645EA46250C4E35603515361D55
:100470003560002000E0401C42F21075A842FADB13
:100480004FF48065054E08363560002000E0401CC2
:1004900042F21075A842FADB70BD00000C0C01405E
:1004A000B004000800000020600600006C01000895
:04000005080001B13D
:00000001FF
