:020000040800F2
:10000000D8040020CD010008D1010008D301000868
:10001000D5010008D7010008D90100080000000040
:10002000000000000000000000000000DB010008EC
:10003000DD01000800000000DF010008E101000808
:10004000E3010008E3010008E3010008E301000800
:10005000E3010008E3010008E3010008E3010008F0
:10006000E3010008E3010008E3010008E3010008E0
:10007000E3010008E3010008E3010008E3010008D0
:10008000E3010008E3010008E3010008E3010008C0
:10009000E3010008E3010008E3010008E3010008B0
:1000A000E3010008E3010008E3010008E3010008A0
:1000B000E3010008E3010008E3010008E301000890
:1000C000E3010008E3010008E3010008E301000880
:1000D000E3010008E3010008E3010008E301000870
:1000E000E3010008E3010008E3010008E301000860
:1000F000E3010008E3010008E3010008E301000850
:10010000E3010008E3010008E3010008E30100083F
:10011000E3010008E3010008E3010008E30100082F
:10012000E3010008E3010008E3010008E30100081F
:1001300000F002F800F03AF80AA090E8000C8244BF
:100140008344AAF10107DA4501D100F02FF8AFF29C
:10015000090EBAE80F0013F0010F18BFFB1A43F0A5
:1001600001031847B0060000D0060000103A24BF73
:1001700078C878C1FAD8520724BF30C830C144BF0C
:1001800004680C607047000000230024002500264E
:10019000103A28BF78C1FBD8520728BF30C148BFEA
:1001A0000B6070471FB51FBD10B510BD00F02BF8D8
:1001B0001146FFF7F7FF00F0F7F900F049F803B434
:1001C000FFF7F2FF03BC00F051F8000008480047B9
:1001D000FEE7FEE7FEE7FEE7FEE7FEE7FEE7FEE7F7
:1001E000FEE7FEE703480449024A044B704700005B
:1001F00031010008D8000020D8040020D8000020D9
:10020000704770477047754600F02CF8AE46050001
:100210006946534620F00700854618B020B5FFF721
:10022000E1FFBDE820404FF000064FF000074FF01F
:1002300000084FF0000B21F00701AC46ACE8C00904
:10024000ACE8C009ACE8C009ACE8C0098D4670470D
:1002500010B50446AFF300802046BDE81040FFF71C
:10026000AEBF000000487047780000200149182008
:10027000ABBEFEE7260002007047002100E0491CEB
:1002800042F2107242438A42F9D8704708B5012100
:10029000002000F0E9F93CA000F08FF973E0684617
:1002A00000F040FA9DF8000000286CD09DF8020094
:1002B0001F2803D19DF80100002864D09DF802009A
:1002C000252833D19DF80100A8B1304800780028D6
:1002D00059D02E480078401E2C490870102100206B
:1002E00000F0C2F92021012000F0BEF91021002009
:1002F00000F0BAF947E026A000F0D6F910B100F0FE
:1003000045F901E000F034F98021002000F0ACF95B
:1003100021A000F052F90221002000F0A5F91AA056
:1003200000F04BF90020194908702CE09DF80100FD
:1003300090B101202049154A127888549DF8021086
:100340001E48124A127881549DF802001C4A115C22
:10035000012000F089F911E0002017490B4A1278BA
:1003600088549DF802101548084A127881549DF867
:100370000200144A115C012000F076F9034800786D
:10038000401C024908708AE7242000003900002040
:10039000726967687400000020202020202020203F
:1003A000202020202020202020202020202020204D
:1003B00020202020202020005A0000203C00002087
:1003C000EA070008C107000810B592B000203649BE
:1003D00008700F2100F048F90121002000F044F9D5
:1003E00000203249087000F099F858E001210020FF
:1003F00000F03AF92EA000F0E0F88521002000F08E
:1004000033F9002400BF11A800F08CF99DF84400D6
:10041000B0B19DF84600252803D1002009A9085550
:100420000FE09DF846002649085C09A908559DF88B
:100430004600234A115C012000F016F9601CC4B28A
:10044000E1E700BFC721002000F00EF9002400BF43
:1004500011A800F067F99DF8440098B19DF8460096
:10046000252803D1002009A908550CE09DF8460075
:100470001349085C01A908552A21012000F0F4F86D
:10048000601CC4B2E4E700BF0EA109A800F038F96F
:1004900028B10DA101A800F033F900B100E0A5E7F3
:1004A00000BF12B010BD000039000020380000204D
:1004B000757365723A0A7061737377643A0000006D
:1004C000C1070008616263003132330010B50F4884
:1004D000806940F008000D4988610846806940F055
:1004E000100088610A480B4908600020C8604FF07E
:1004F000333009490860091D08603821002000F0E8
:10050000B3F80621002000F0AFF810BD0010024043
:100510004444448400100140000C014070B500F0D8
:1005200095F80646002415E0402000EBC400C1B257
:10053000002000F099F8002508E00B4800EBC4000B
:10054000415D012000F090F8681CC5B2082DF4DB75
:10055000601CC4B2054800788442E5DB46F08001A7
:10056000002000F081F870BD00000020C0070008E6
:1005700000B5C021002000F077F802A000F01DF8BF
:1005800000BD00006572726F7200000000B5C021EE
:10059000002000F069F802A000F00FF800BD000094
:1005A000726967687400000010B5FFF78FFFFFF7EE
:1005B0000BFFFFF76BFE002010BD30B50546002491
:1005C00010E0285D0A2806D1C021002000F04CF878
:1005D000601CC4B206E0295D012000F045F8601CF3
:1005E000C4B200BF285D0028EBD130BD10B5014674
:1005F000134B144C2360144B241D2360E314114C43
:10060000143423604FF4C06343EAC123241F2360E2
:10061000002200E0521C642AFCD30A4B08331B68FA
:1006200003F0E703074C0834246804F4405443EA19
:1006300054204FF03333034C2360241D236010BD3E
:1006400044344344000C01403333443310B5002498
:1006500000E0641CB4F57A6FFBD30020FFF7C6FFFF
:1006600000F07F0010BD000030B505460C4600BF0D
:100670000020FFF7BBFF00F080000028F8D10948F8
:100680000068002040EAC52040F48060204304F068
:10069000180140EA41200349086008150149083162
:1006A000086030BD0C0C014010B50246002112E07C
:1006B0000E48405C20B10E48405C0E4C235C03E0C9
:1006C0000B48405C0C4C235C505C984201D00020ED
:1006D00010BD481CC1B2094800788142E8DB505C7B
:1006E00008B90120F4E70020F2E700005A000020DA
:1006F0003C000020EA070008C1070008390000207C
:1007000030B502460B460021002005E0545C0CB9D0
:10071000012005E04C1CE1B2545C5D5CAC42F5D0BC
:1007200000BF30BD70B504462048007818B10F20D6
:10073000FFF7A3FD02E01420FFF79FFD1C4880682F
:10074000C5B205F0800068B3C5F38010607005F095
:100750003F00A07017480078F0B161781548007824
:10076000401E154A105C814216D1A17811480078CC
:10077000401E124A105C81420ED10C48007810B124
:100780000120207004E0002020701420FFF775FD88
:1007900001200649087007E0002004490870012084
:1007A000207001E00020207070BD000038000020A3
:1007B00000100140390000205A0000203C000020B9
:1007C000073132717761737A7833346572646663A6
:1007D00076353674796768626E373875696A6B6D1D
:1007E0008039306F706C818283842140515741532E
:1007F0005A582324455244464356255E5459474887
:10080000424E262A55494A4B4D2028294F504C85A7
:100810008687880034080008000000203C000000A3
:100820006C010008700800083C0000209C040000D7
:1008300088010008070800081C0807001F080008B6
:100840001C0807001F1F00081C0807001F081F08BE
:100850001C0807001F08001F1C0807001F080008CD
:100860001F0807001F0800081C1F070000000000E9
:04000005080001CD21
:00000001FF
