:020000040800F2
:10000000E0040020CD010008D1010008D301000860
:10001000D5010008D7010008D90100080000000040
:10002000000000000000000000000000DB010008EC
:10003000DD01000800000000DF010008E101000808
:10004000E3010008E3010008E3010008E301000800
:10005000E3010008E3010008E3010008E3010008F0
:10006000E3010008E3010008E3010008E3010008E0
:10007000E3010008E3010008E3010008E3010008D0
:10008000E3010008E3010008E3010008E3010008C0
:10009000E3010008E3010008E3010008E3010008B0
:1000A000E3010008E3010008E3010008E3010008A0
:1000B000E3010008E3010008E3010008E301000890
:1000C000E3010008E3010008E3010008E301000880
:1000D000E3010008E3010008E3010008E301000870
:1000E000E3010008E3010008E3010008E301000860
:1000F000E3010008E3010008E3010008E301000850
:10010000E3010008E3010008E3010008E30100083F
:10011000E3010008E3010008E3010008E30100082F
:10012000E3010008E3010008E3010008E30100081F
:1001300000F002F800F03AF80AA090E8000C8244BF
:100140008344AAF10107DA4501D100F02FF8AFF29C
:10015000090EBAE80F0013F0010F18BFFB1A43F0A5
:1001600001031847B4040000D4040000103A24BF6F
:1001700078C878C1FAD8520724BF30C830C144BF0C
:1001800004680C607047000000230024002500264E
:10019000103A28BF78C1FBD8520728BF30C148BFEA
:1001A0000B6070471FB51FBD10B510BD00F02BF8D8
:1001B0001146FFF7F7FF00F087F800F049F803B4A5
:1001C000FFF7F2FF03BC00F051F8000008480047B9
:1001D000FEE7FEE7FEE7FEE7FEE7FEE7FEE7FEE7F7
:1001E000FEE7FEE703480449024A044B704700005B
:1001F00031010008E0000020E0040020E0000020C1
:10020000704770477047754600F02CF8AE46050001
:100210006946534620F00700854618B020B5FFF721
:10022000E1FFBDE820404FF000064FF000074FF01F
:1002300000084FF0000B21F00701AC46ACE8C00904
:10024000ACE8C009ACE8C009ACE8C0098D4670470D
:1002500010B50446AFF300802046BDE81040FFF71C
:10026000AEBF000000487047800000200149182000
:10027000ABBEFEE7260002007047002100E0491CEB
:1002800042F2107242438A42F9D8704710B50020FA
:10029000064908700F2100F003F90121002000F049
:1002A000FFF800200249087010BD00004000002047
:1002B0004100002000B502A000F0A8F800BD000039
:1002C0000A7269676874000008B54548806940F0A3
:1002D0000800434988610846806940F01000886141
:1002E0004048414908600020C8604FF033303F4922
:1002F0000860091D08603821002000F0D1F80621AF
:10030000002000F0CDF8FFF7C1FF68E0684600F07C
:100310000BF99DF80000002861D09DF802001F280D
:1003200005D19DF8010010B9FFF7B0FF57E09DF827
:100330000200252826D19DF80100A8B12C4800789C
:1003400000284CD02A480078401E29490870102106
:10035000002000F0A5F82021012000F0A1F81021D4
:10036000002000F09DF83AE0C021002000F098F84D
:1003700020A000F0B5F808B1FFF79CFF00201C4951
:1003800008702CE09DF8010090B101201B49184A2B
:10039000127888549DF802001949154A1278885439
:1003A0009DF80200174A115C012000F079F811E075
:1003B000002012490E4A127888549DF80200104914
:1003C0000B4A127888549DF802000F4A115C0120F4
:1003D00000F066F806480078401C0549087095E76B
:1003E000001002404444448400100140000C0140CD
:1003F00040000020726967687400000062000020FD
:1004000044000020ED050008C405000830B505468D
:10041000002410E0285D0A2806D1C021002000F049
:100420003FF8601CC4B206E0295D012000F038F8F6
:10043000601CC4B200BF285D0028EBD130BD0000B5
:1004400010B50146134B144C2360144B241D23603C
:10045000E314114C143423604FF4C06343EAC12306
:10046000241F2360002200E0521C642AFCD30A4BA4
:1004700008331B6803F0E703074C0834246804F4CE
:10048000405443EA54204FF03333034C2360241D7F
:10049000236010BD44344344000C014033334433E3
:1004A00030B505460C4600BF0020FFF7C9FF00F03D
:1004B00080000028F8D109480068002040EAC520E3
:1004C00040F48060204304F0180140EA41200349D1
:1004D0000860081501490831086030BD0C0C014066
:1004E000024600210EE00C48405C10B10B48435C12
:1004F00001E00B48435C505C984201D000207047FB
:10050000481CC1B2074800788142ECDB505C08B956
:100510000120F4E70020F2E762000020ED0500086A
:10052000C40500084000002070B50446204800784B
:1005300018B10F20FFF7A1FE02E01420FFF79DFE87
:100540001C488068C5B205F0800068B3C5F3801010
:10055000607005F03F00A07017480078F0B1617836
:1005600015480078401E154A105C814216D1A178CA
:1005700011480078401E124A105C81420ED10C488E
:10058000007810B10120207004E0002020701420B9
:10059000FFF773FE01200649087007E000200449B8
:1005A00008700120207001E00020207070BD000064
:1005B00041000020001001404000002062000020A7
:1005C000440000203132717761737A783334657278
:1005D00064666376353674796768626E3738756934
:1005E0006A6B6D0039306F706C0000000021405163
:1005F0005741535A582324455244464356255E5486
:10060000594748424E262A55494A4B4D2028294FE2
:10061000504C0000000000003806000800000020D8
:10062000440000006C0100087C0600084400002023
:100630009C04000088010008070800081C08070047
:100640001F0800081C0807001F1F00081C080700DF
:100650001F081F081C0807001F08001F1C080700B0
:100660001F0800081F0807001F0800081C1F0700BC
:0C0670001F0800081C081F00000000000C
:04000005080001CD21
:00000001FF
