:020000040800F2
:10000000880F0020CD010008D1010008D3010008AD
:10001000D5010008D7010008D90100080000000040
:10002000000000000000000000000000DB010008EC
:10003000DD01000800000000DF010008E101000808
:10004000E3010008E3010008E3010008E301000800
:10005000E3010008E3010008E3010008E3010008F0
:10006000E3010008E3010008E3010008E3010008E0
:10007000E3010008E3010008E3010008E3010008D0
:10008000E3010008E3010008E3010008E3010008C0
:10009000E3010008E3010008E3010008E3010008B0
:1000A000E3010008E3010008E3010008E3010008A0
:1000B000E3010008E3010008E3010008E301000890
:1000C000E3010008E3010008E3010008E301000880
:1000D000E3010008E3010008E3010008E301000870
:1000E000E3010008E3010008E3010008E301000860
:1000F000E3010008E3010008E3010008E301000850
:10010000E3010008E3010008E3010008E30100083F
:10011000E3010008E3010008E3010008E30100082F
:10012000E3010008E3010008E3010008E30100081F
:1001300000F002F800F03AF80AA090E8000C8244BF
:100140008344AAF10107DA4501D100F02FF8AFF29C
:10015000090EBAE80F0013F0010F18BFFB1A43F0A5
:100160000103184790110000B0110000103A24BF9D
:1001700078C878C1FAD8520724BF30C830C144BF0C
:1001800004680C607047000000230024002500264E
:10019000103A28BF78C1FBD8520728BF30C148BFEA
:1001A0000B6070471FB51FBD10B510BD00F084F87F
:1001B0001146FFF7F7FF00F0C1FB00F0A2F803B40F
:1001C000FFF7F2FF03BC00F0A9F800000848004761
:1001D000FEE7FEE7FEE7FEE7FEE7FEE7FEE7FEE7F7
:1001E000FEE7FEE703480449024A044B704700005B
:1001F00031010008880B0020880F0020880B0020A8
:1002000010B5203AC0F00B80B1E81850203AA0E8B1
:100210001850B1E81850A0E81850BFF4F5AF5FEAE5
:10022000027C24BFB1E81850A0E8185044BF18C998
:1002300018C0BDE810405FEA827C24BF51F8043B3F
:1002400040F8043B08BF7047D20728BF31F8023B93
:1002500048BF11F8012B28BF20F8023B48BF00F827
:10026000012B70474FF0000200B5134694469646A6
:10027000203922BFA0E80C50A0E80C50B1F12001B9
:10028000BFF4F7AF090728BFA0E80C5048BF0CC067
:100290005DF804EB890028BF40F8042B08BF7047C5
:1002A00048BF20F8022B11F0804F18BF00F8012B37
:1002B0007047704770477047754600F02BF8AE46A0
:1002C00005006946534620F00700854618B020B562
:1002D000FFF788FFBDE820404FF000064FF0000711
:1002E0004FF000084FF0000B21F00701AC46ACE8DE
:1002F000C009ACE8C009ACE8C009ACE8C0098D464B
:10030000704710B50446AFF300802046BDE81040AA
:10031000FFF755BF00487047280B002001491820FF
:10032000ABBEFEE726000200704770B505460C46DE
:10033000E0B240F08001002000F0B0FB002604E0B5
:100340002021012000F0AAFB761CAE42F8D3E0B2D7
:1003500040F08001002000F0A1FB70BD002100E012
:10036000491C42F2107242438A42F9D87047000099
:1003700010B596B004460121002000F08FFB65A067
:1003800000F0F1FAC5E000208DF81C0014901590E3
:1003900007A800F0A3FB012801D116B010BD5EA193
:1003A00007A800F0C5FB58B10121002000F076FB42
:1003B0005BA000F0D8FA8221002000F06FFBA8E0DB
:1003C0005AA107A800F0B4FB58B10121002000F0A9
:1003D00065FB58A000F0C7FA8221002000F05EFB08
:1003E00097E059A107A800F0A3FB78B101210020F4
:1003F00000F054FB56A000F0B6FAEF21012000F007
:100400004DFB8221002000F049FB82E006A907A8ED
:1004100000F031FC90B10121002000F03FFB01A968
:10042000069800F0B7FA4EA000F09DFA01A800F07F
:100430009AFA8221002000F031FB6AE006A907A8A1
:1004400000F0D1FB90B10121002000F027FB01A9B1
:10045000069800F09FFA42A000F085FA01A800F08B
:1004600082FA8221002000F019FB52E006A907A8B9
:1004700000F079FB90B10121002000F00FFB01A9F1
:10048000069800F087FA36A000F06DFA01A800F097
:100490006AFA8221002000F001FB3AE006A907A8D1
:1004A00000F081FB90B10121002000F0F7FA01A9D2
:1004B000069800F06FFA2AA000F055FA01A800F0A3
:1004C00052FA8221002000F0E9FA22E006A907A8EA
:1004D00000F0A9FB90B10121002000F0DFFA01A992
:1004E000069800F057FA1EA000F03DFA01A800F0AF
:1004F0003AFA8221002000F0D1FA0AE0012100201E
:1005000000F0CCFA19A000F02EFA8221002000F0B1
:10051000C5FA38E72420000072696768740000009B
:1005200024200A726967687400000000706C75739B
:100530000000000024200A20636861726163746512
:10054000723A202B00000000656D6F6A69000000A0
:1005500024200A206368617261637465723A200026
:1005600024200A726573756C743A200024200A6591
:1005700072726F720000000010B501207849087097
:1005800002204870042088700820C870102008716C
:1005900048718871C8711F2008720021704841722B
:1005A0008172C1720121017302214173042181739F
:1005B0000521C1731F206A490874002168484174ED
:1005C00081741021C174002101754175817510215C
:1005D000C1751020624908760821614841760421DE
:1005E00081760221C1760121017741778177C17738
:1005F00010205B4981F820001021594880F8211013
:1006000080F8221080F82310082180F8241004219B
:1006100080F82510022180F82610012180F827108B
:1006200004204F4981F8280004214D4880F8291002
:1006300080F82A10022180F82B10012180F82C105C
:10064000002180F82D1080F82E101F2180F82F1027
:100650000820434981F830000421414880F83110D6
:1006600080F83210082180F83310102180F83410FF
:10067000002180F8351080F836101F2180F83710DF
:100680000120374981F838000121354880F83910B8
:1006900080F83A1080F83B10022180F83C100421C9
:1006A00080F83D10082180F83E10102180F83F109E
:1006B00000F01EF90121002000F0F0F98621002051
:1006C00000F0ECF90021012000F0E8F901210846D2
:1006D00000F0E4F90221012000F0E0F903210120FB
:1006E00000F0DCF9C621002000F0D8F90421012037
:1006F00000F0D4F90521012000F0D0F906210120F5
:1007000000F0CCF90721012000F0C8F90C210020ED
:1007100000F0C4F93220FFF721FE002407E0642036
:10072000FFF71CFE1821002000F0B8F9641C042C0F
:10073000F5DB6420FFF712FE002407E01E20FFF720
:100740000DFE1C21002000F0A9F9641C0E2CF5DB25
:100750001420FFF703FE0F21002000F09FF910BDC9
:10076000080000200020704710B59EB004463C21D0
:100770000FA8FFF777FD3C216846FFF773FD27E0E0
:100780000121002000F08AF912A000F0ECF8852188
:10079000002000F083F90FA800F0A0F9012801D192
:1007A0001EB010BDC721002000F078F9684600F0A7
:1007B000AAF9012800D1F3E70AA10FA800F0B8F9BF
:1007C00030B109A1684600F0B3F908B10020E7E7AD
:1007D000D6E70000757365723A0A706173737764C7
:1007E0003A000000616263003132330010B5D6B0C8
:1007F0001422174951A8FFF703FD1422144914319C
:100800004CA8FFF7FDFC4FF496721149283101A85E
:10081000FFF7F6FC002407E0002004EB44010D4A3A
:1008200002EB0111C862641C082CF5DB4CA951A82D
:1008300000F092FA10B1012056B010BD01A951A8E4
:1008400000F054FC08B10120F6E70020F4E70000B6
:10085000A0110008A809002010B51948806940F0CF
:100860000800174988610846806940F010008861D7
:100870001448154908600020C8604FF03330134910
:100880000860091D08603821002000F007F90621E2
:10089000002000F003F90F21002000F0FFF80121F3
:1008A000002000F0FBF8FFF7A1FF012806D101218D
:1008B000002000F0F3F806A000F055F810BD00008D
:1008C000001002404444448400100140000C0140E8
:1008D00063726173680A66696C6520737973746505
:1008E0006D206E6F7420737563636565640000002E
:1008F00070B500F0BFF80646002413E0402000EB7E
:10090000C400C1B2002000F0C9F8002507E00A4881
:1009100000EBC400415D012000F0C0F86D1C082D03
:10092000F5DB641C082CE9DBF0B240F0800100200C
:1009300000F0B4F870BD00000800002012E0FFF7DE
:100940008BFFFFF719FE2046FFF70EFF012800D1AD
:1009500008E02046FFF70CFD012800D102E0FFF778
:1009600001FF00BFEBE730B5054600240EE0285D2F
:100970000A2805D1C021002000F090F8641C05E091
:10098000295D012000F08AF8641C00BF285D002862
:10099000EDD130BDF0B502460D4600260DE0012038
:1009A000002403E000EB80077800641CB442F9DB0C
:1009B00092FBF0F707B901E0761CF0E700BF0023D7
:1009C000711E12E00120002403E000EB8007780094
:1009D000641C8C42F9DB92FBF0F73037EF5492FB4A
:1009E000F0F707FB10225B1C491E0029EADA0027FA
:1009F000EF54F0BD30B5044600F03CF80546204603
:100A0000FFF7B1FF05F18000C1B2002000F046F809
:100A100030BD000010B50146134B144C2360144B3D
:100A2000241D2360E314114C143423604FF4C0637D
:100A300043EAC123241F2360002200E0521C642AE1
:100A4000FCDB0A4B08331B6803F0E703074C083450
:100A5000246804F4405443EA54204FF03333034CE9
:100A60002360241D236010BD44344344000C014026
:100A70003333443310B5002400E0641CB4F57A6FBE
:100A8000FBDB0020FFF7C6FF00F07F0010BD00B5C4
:100A90000020FFF7BFFF00F0800000BD30B5054625
:100AA0000C4600BFFFF7F3FF00F080000028F9D1EB
:100AB00009480068002040EAC52040F480602043D7
:100AC00004F0180140EA4120034908600815024972
:100AD0000831086030BD00000C0C014070B50646BE
:100AE00000250FE0284600F093F9054629463046D8
:100AF00000F079FA0446012C00D170BD0A2C01D116
:100B00000020FAE7EEE770B5064600250FE028461C
:100B100000F07EF905462946304600F070FA04469A
:100B2000012C00D170BD0A2C01D10020FAE7EEE7BC
:100B300010B502460B46002104E0505C08B90120C4
:100B400010BD491C505C5C5CA042F6D00020F7E769
:100B50000246002002E0135C0B54401C135C002B87
:100B6000F9D10B5470472DE9F04104460E4600259B
:100B700018E0605D2A2810D100206055204600F062
:100B8000CBF80746691C601800F0C6F8804607FBE2
:100B900008F030600120BDE8F081605D08B90020F8
:100BA000F9E76D1CE5E72DE9F04104460E46002506
:100BB00018E0605D2F2810D100206055204600F01D
:100BC000ABF80746691C601800F0A6F8804697FB52
:100BD000F8F030600120BDE8F081605D08B90020C8
:100BE000F9E76D1CE5E72DE9F04104460E460025C6
:100BF00018E0605D2D2810D100206055204600F0DF
:100C00008BF80746691C601800F086F88046A7EB51
:100C1000080030600120BDE8F081605D08B9002067
:100C2000F9E76D1CE5E72DE9F04704468946002504
:100C300020E0605D5E2818D100206055204600F05D
:100C40006BF88246691C601800F066F807464FF0A2
:100C50000108002602E008FB0AF8761CBE42FADB17
:100C6000C9F800800120BDE8F087605D08B9002068
:100C7000F9E76D1CDDE72DE9F04104460E4600253D
:100C800018E0605D2B2810D100206055204600F050
:100C900043F80746691C601800F03EF8804607EBF1
:100CA000080030600120BDE8F081605D08B90020D7
:100CB000F9E76D1CE5E70146002000E0401C0A5CF6
:100CC000002AFBD17047826B02B97047816B03E049
:100CD000435C4A1E8354491C4A1E825C002AF7D199
:100CE000826B521E8263426B521E426300BFECE76E
:100CF00010B50A46416B03E0445C4B1CC454491ECA
:100D0000836B8B42F8DD836BC254836B5B1C836304
:100D1000436B5B1C436310BD2DE9F0430446204642
:100D2000FFF7C9FF81464FF00008A9F10103002534
:100D30000DE0E05CA0F13007002603E007EB870040
:100D40004700761CAE42F9DBB8446D1C5B1E002BDD
:100D5000EFDA4046BDE8F08370B505460E46002444
:100D600012E004EB4400274901EB0010C06A50B9BF
:100D700004EB4401234A02EB01102946FFF7D8FE99
:100D8000012800D170BD641C082CEADB00240CE0B3
:100D9000082C01D10220F5E704EB4400194901EBCE
:100DA0000010C06A00B901E0641CF1E700BF04EB69
:100DB0004400144A02EB00112846FFF7C9FE04EB79
:100DC0004400104A02EB001000F114013046FFF716
:100DD000BFFE012004EB44010A4A02EB0111C86284
:100DE00004EB4400114601EB00108462C4EB0410D4
:100DF00000EB8000044A02EB800104A0FFF7A8FE8C
:100E00000020BFE7A80900204800002000000000E3
:100E100070B506462B480078012803D10520FFF75E
:100E20009DFA02E01420FFF799FA27488068C4B2BF
:100E300004F0800078B30120FFF790FA2248806820
:100E4000C0B2A04201D0002070BD0120FFF786FA99
:100E50001D488068C0B2A04201D00020F4E7002005
:100E60001A49086004F0400020B104F03F0018491E
:100E70000D5C03E004F03F0016490D5C66B1AE4224
:100E80000AD11048007810B91420FFF767FA012042
:100E90000C49087003E004E000200A490870284665
:100EA000D2E70A480068B0F5967F03D100200549D3
:100EB000087004E005480068401C044908600020F0
:100EC000C2E70000000000200010014004000020E4
:100ED000751100084C11000870B504460D46202D10
:100EE0002DDB7F2D2BDCD4E90D10884210D1606BF7
:100EF00025540021606B401C215429460120FFF736
:100F0000CDFD606B401C6063A06B401CA06314E0CF
:100F1000FFF7B0FD0646D4E90D12881A3146FFF7F7
:100F200004FA29460120FFF7B9FDA16B0819FFF764
:100F300061FD29462046FFF7DBFE002070BD1B2D1A
:100F400001D10120FAE70DB90020F7E70A2D01D100
:100F50000020F3E7802D01D10020EFE7812D01D1A2
:100F60000020EBE7822D0CD1A06B08B90020E5E74B
:100F700010210020FFF792FDA06B401EA06300200F
:100F8000DCE7832D0ED1D4E90D01884201D1002088
:100F9000D4E714210020FFF781FDA06B401CA06363
:100FA0000020CBE7082D14D1A06B80B1FFF762FDC4
:100FB000461ED4E90D12891A481C3146FFF7B5F9CF
:100FC000A16B0819FFF716FD2046FFF77CFE0020F5
:100FD000B4E7842D01D10020B0E7852D01D1002098
:100FE000ACE70220AAE770B505460C460A2C01D1F1
:100FF0000A2070BD21462846FFF76EFFF9E72DE96C
:10100000F04186B004460E460A2E03D10A2006B0EF
:10101000BDE8F081202E3CDB7F2E3ADCD4E90D10B8
:10102000884210D1606B26540021606B401C215413
:101030002A210120FFF732FD606B401C6063A06B2A
:10104000401CA06323E0FFF715FD8046D4E90D1294
:10105000881A4146FFF769F92A210120FFF71EFD92
:10106000A16B0819FFF727FE0746002503E02A2099
:1010700001A948556D1CBD42F9DB002001A9485566
:1010800001A8FFF7B7FC31462046FFF731FE0020EC
:10109000BDE7082E24D1A06B00B3FFF7EBFCA0F155
:1010A0000108D4E90D12891A481C4146FFF73DF9A1
:1010B000A16B0819FFF7FFFD0746002503E02A2072
:1010C00001A948556D1CBD42F9DB002001A9485516
:1010D00001A8FFF78FFC2046FFF7F5FD002096E7FB
:1010E00031462046FFF7F8FE91E7000070B505464F
:1010F0000E46002417E0082C01D1012070BD04EB3E
:101100004400104901EB0010C06A01280AD104EB29
:1011100044010C4A02EB01102946FFF709FD0128A2
:1011200000D101E0641CE6E700BFC4EB041000EB53
:101130008000054A02EB80013046FFF709FD0020E0
:10114000DCE70000A8090020480000203132717758
:1011500061737A7833346572646663763536747990
:101160006768626E373875696A6B6D1B39306F70EE
:101170006C0A8081842B2D515741535A58232445A2
:101180005244464356255E54594748424E2F2A55ED
:10119000494A4B4D2028294F504C08828385000036
:1011A000726F6F740000000000000000000000007B
:1011B0000000000075736572000000000000000070
:1011C0000000000000000000726F6F743A3132338B
:1011D0000A6162633A3132333435000000000000A6
:1011E00000000000000000000000000000000000FF
:1011F00000000000000000000000000000000000EF
:1012000000000000000000000000000000000000DE
:1012100000000000000000000000000000000000CE
:1012200000000000000000000000000000000000BE
:1012300000000000000000000000000000000000AE
:10124000000000000000000000000000000000009E
:10125000000000000000000000000000000000008E
:10126000000000000000000000000000000000007E
:10127000000000000000000000000000000000006E
:10128000000000000000000000000000000000005E
:10129000000000000000000000000000000000004E
:1012A000000000000000000000000000000000003E
:1012B000000000000000000000000000000000002E
:1012C000000000000000000000000000000000001E
:1012D000000000000000000000000000000000000E
:1012E00000000000000000000000000000000000FE
:1012F0000000000014130008000000200800000097
:101300006C0100081C13000808000020800F00007A
:0C13100088010008000000000000000040
:04000005080001CD21
:00000001FF
