:020000040800F2
:10000000A0040020CD010008D1010008D3010008A0
:10001000D5010008D7010008D90100080000000040
:10002000000000000000000000000000DB010008EC
:10003000DD01000800000000DF010008E101000808
:10004000E3010008E3010008E3010008E301000800
:10005000E3010008E3010008E3010008E3010008F0
:10006000E3010008E3010008E3010008E3010008E0
:10007000E3010008E3010008E3010008E3010008D0
:10008000E3010008E3010008E3010008E3010008C0
:10009000E3010008E3010008E3010008E3010008B0
:1000A000E3010008E3010008E3010008E3010008A0
:1000B000E3010008E3010008E3010008E301000890
:1000C000E3010008E3010008E3010008E301000880
:1000D000E3010008E3010008E3010008E301000870
:1000E000E3010008E3010008E3010008E301000860
:1000F000E3010008E3010008E3010008E301000850
:10010000E3010008E3010008E3010008E30100083F
:10011000E3010008E3010008E3010008E30100082F
:10012000E3010008E3010008E3010008E30100081F
:1001300000F002F800F03AF80AA090E8000C8244BF
:100140008344AAF10107DA4501D100F02FF8AFF29C
:10015000090EBAE80F0013F0010F18BFFB1A43F0A5
:1001600001031847A0020000C0020000103A24BF9B
:1001700078C878C1FAD8520724BF30C830C144BF0C
:1001800004680C607047000000230024002500264E
:10019000103A28BF78C1FBD8520728BF30C148BFEA
:1001A0000B6070471FB51FBD10B510BD00F02BF8D8
:1001B0001146FFF7F7FF00F0BBF800F049F803B471
:1001C000FFF7F2FF03BC00F051F8000008480047B9
:1001D000FEE7FEE7FEE7FEE7FEE7FEE7FEE7FEE7F7
:1001E000FEE7FEE703480449024A044B704700005B
:1001F00031010008A0000020A0040020A000002081
:10020000704770477047754600F02CF8AE46050001
:100210006946534620F00700854618B020B5FFF721
:10022000E1FFBDE820404FF000064FF000074FF01F
:1002300000084FF0000B21F00701AC46ACE8C00904
:10024000ACE8C009ACE8C009ACE8C0098D4670470D
:1002500010B50446AFF300802046BDE81040FFF71C
:10026000AEBF000000487047400000200149182040
:10027000ABBEFEE72600020070470020704700007A
:1002800010B51448806940F008001249886108469A
:10029000806940F0100088610F4810490860002014
:1002A000C8604FF033300E490860091D08603821DE
:1002B000002000F087F80621002000F083F80F21CD
:1002C000002000F07FF80121002000F07BF800F012
:1002D00009F810BD0010024044444484001001405D
:1002E000000C014070B500F059F80646002413E0F8
:1002F000402000EBC400C1B2002000F063F80025EC
:1003000007E00A4800EBC400415D012000F05AF804
:100310006D1C082DF5DB641C082CE9DBF0B240F005
:100320008001002000F04EF870BD000000000020A9
:1003300003E0FFF7A5FFFFF7A0FFFAE710B50146BE
:10034000134B144C2360144B241D2360E314114CF5
:10035000143423604FF4C06343EAC123241F236095
:10036000002200E0521C642AFCDB0A4B08331B68A5
:1003700003F0E703074C0834246804F4405443EACC
:1003800054204FF03333034C2360241D236010BDF1
:1003900044344344000C01403333443310B500244B
:1003A00000E0641CB4F57A6FFBDB0020FFF7C6FFAA
:1003B00000F07F0010BD00B50020FFF7BFFF00F088
:1003C000800000BD30B505460C4600BFFFF7F3FFC7
:1003D00000F080000028F9D109480068002040EAB8
:1003E000C52040F48060204304F0180140EA412019
:1003F00003490860081502490831086030BD000053
:100400000C0C014024040008000000204000000003
:100410006C01000864040008400000206004000033
:1004200088010008070800081C0807001F080008CA
:100430001C0807001F1F00081C0807001F081F08D2
:100440001C0807001F08001F1C0807001F080008E1
:100450001F0807001F0800081C1F070000000000FD
:040460000000000098
:04000005080001CD21
:00000001FF
