:020000040800F2
:10000000A8040020CD010008D1010008D301000898
:10001000D5010008D7010008D90100080000000040
:10002000000000000000000000000000DB010008EC
:10003000DD01000800000000DF010008E101000808
:10004000E3010008E3010008E3010008E301000800
:10005000E3010008E3010008E3010008E3010008F0
:10006000E3010008E3010008E3010008E3010008E0
:10007000E3010008E3010008E3010008E3010008D0
:10008000E3010008E3010008E3010008E3010008C0
:10009000E3010008E3010008E3010008E3010008B0
:1000A000E3010008E3010008E3010008E3010008A0
:1000B000E3010008E3010008E3010008E301000890
:1000C000E3010008E3010008E3010008E301000880
:1000D000E3010008E3010008E3010008E301000870
:1000E000E3010008E3010008E3010008E301000860
:1000F000E3010008E3010008E3010008E301000850
:10010000E3010008E3010008E3010008E30100083F
:10011000E3010008E3010008E3010008E30100082F
:10012000E3010008E3010008E3010008E30100081F
:1001300000F002F800F03AF80AA090E8000C8244BF
:100140008344AAF10107DA4501D100F02FF8AFF29C
:10015000090EBAE80F0013F0010F18BFFB1A43F0A5
:1001600001031847140A0000340A0000103A24BFA3
:1001700078C878C1FAD8520724BF30C830C144BF0C
:1001800004680C607047000000230024002500264E
:10019000103A28BF78C1FBD8520728BF30C148BFEA
:1001A0000B6070471FB51FBD10B510BD00F052F8B1
:1001B0001146FFF7F7FF00F07FFA00F070F803B484
:1001C000FFF7F2FF03BC00F077F800000848004793
:1001D000FEE7FEE7FEE7FEE7FEE7FEE7FEE7FEE7F7
:1001E000FEE7FEE703480449024A044B704700005B
:1001F00031010008A8000020A8040020A800002069
:100200004FF0000200B5134694469646203922BFAF
:10021000A0E80C50A0E80C50B1F12001BFF4F7AFFA
:10022000090728BFA0E80C5048BF0CC05DF804EBDC
:10023000890028BF40F8042B08BF704748BF20F84A
:10024000022B11F0804F18BF00F8012B7047704748
:1002500070477047754600F02BF8AE4605006946BA
:10026000534620F00700854618B020B5FFF7BAFFC7
:10027000BDE820404FF000064FF000074FF00008A7
:100280004FF0000B21F00701AC46ACE8C009ACE828
:10029000C009ACE8C009ACE8C0098D46704710B58C
:1002A0000446AFF300802046BDE81040FFF787BF4B
:1002B000004870474800002001491820ABBEFEE707
:1002C00026000200704770B505460C46E0B240F0CB
:1002D0008001002000F070FA002604E020210120B7
:1002E00000F06AFA761CAE42F8D3E0B240F080012A
:1002F000002000F061FA70BD002100E0491C42F2CC
:10030000107242438A42F9D87047000010B590B08D
:1003100004460121002000F04FFA16A000F0E1F998
:1003200027E000208DF804000E900F9001A800F047
:1003300063FA012801D110B010BD0FA101A800F08F
:1003400085FA58B10121002000F036FA0CA000F027
:10035000C8F98221002000F02FFA0AE001210020D4
:1003600000F02AFA09A000F0BCF98221002000F078
:1003700023FAD6E724200000726967687400000041
:1003800024200A72696768740000000024200A654E
:1003900072726F720000000010B501207849087079
:1003A00002204870042088700820C870102008714E
:1003B00048718871C8711F2008720021704841720D
:1003C0008172C17201210173022141730421817381
:1003D0000521C1731F206A490874002168484174CF
:1003E00081741021C174002101754175817510213E
:1003F000C1751020624908760821614841760421C0
:1004000081760221C1760121017741778177C17719
:1004100010205B4981F820001021594880F82110F4
:1004200080F8221080F82310082180F8241004217D
:1004300080F82510022180F82610012180F827106D
:1004400004204F4981F8280004214D4880F82910E4
:1004500080F82A10022180F82B10012180F82C103E
:10046000002180F82D1080F82E101F2180F82F1009
:100470000820434981F830000421414880F83110B8
:1004800080F83210082180F83310102180F83410E1
:10049000002180F8351080F836101F2180F83710C1
:1004A0000120374981F838000121354880F839109A
:1004B00080F83A1080F83B10022180F83C100421AB
:1004C00080F83D10082180F83E10102180F83F1080
:1004D00000F0CCF80121002000F06EF98621002008
:1004E00000F06AF90021012000F066F901210846B8
:1004F00000F062F90221012000F05EF903210120E1
:1005000000F05AF9C621002000F056F9042101201C
:1005100000F052F90521012000F04EF906210120DA
:1005200000F04AF90721012000F046F90C210020D3
:1005300000F042F93220FFF7DFFE002407E06420DC
:10054000FFF7DAFE1821002000F036F9641C042CB5
:10055000F5DB6420FFF7D0FE002407E01E20FFF744
:10056000CBFE1C21002000F027F9641C0E2CF5DBCB
:100570001420FFF7C1FE0F21002000F01DF910BD6F
:10058000080000200020704710B59EB004463C21B2
:100590000FA8FFF735FE3C216846FFF731FE27E044
:1005A0000121002000F008F912A000F09AF885213E
:1005B000002000F001F90FA800F01EF9012801D178
:1005C0001EB010BDC721002000F0F6F8684600F00C
:1005D00028F9012800D1F3E70AA10FA800F036F9A5
:1005E00030B109A1684600F031F908B10020E7E711
:1005F000D6E70000757365723A0A706173737764A9
:100600003A000000616263003132330010B51348D4
:10061000806940F00800114988610846806940F00F
:10062000100088610E480F4908600020C8604FF034
:1006300033300D490860091D08603821002000F0A2
:10064000BBF80621002000F0B7F80F21002000F0D1
:10065000B3F80121002000F0AFF810BD00100240F7
:100660004444448400100140000C014070B500F087
:100670008FF80646002413E0402000EBC400C1B20E
:10068000002000F099F8002507E00A4800EBC400BC
:10069000415D012000F090F86D1C082DF5DB641C15
:1006A000082CE9DBF0B240F08001002000F084F873
:1006B00070BD00000800002012E0FFF7A7FFFFF761
:1006C0006BFE2046FFF760FF012800D108E02046BE
:1006D000FFF71CFE012800D102E0FFF753FF00BF27
:1006E000EBE730B5054600240EE0285D0A2805D169
:1006F000C021002000F060F8641C05E0295D0120A5
:1007000000F05AF8641C00BF285D0028EDD130BD10
:1007100030B5044600F03CF805462046FFF7E1FFFF
:1007200005F18000C1B2002000F046F830BD0000A5
:1007300010B50146134B144C2360144B241D236049
:10074000E314114C143423604FF4C06343EAC12313
:10075000241F2360002200E0521C642AFCDB0A4BA9
:1007600008331B6803F0E703074C0834246804F4DB
:10077000405443EA54204FF03333034C2360241D8C
:10078000236010BD44344344000C014033334433F0
:1007900010B5002400E0641CB4F57A6FFBDB002088
:1007A000FFF7C6FF00F07F0010BD00B50020FFF787
:1007B000BFFF00F0800000BD30B505460C4600BF0D
:1007C000FFF7F3FF00F080000028F9D10948006826
:1007D000002040EAC52040F48060204304F0180166
:1007E00040EA4120034908600815024908310860C1
:1007F00030BD00000C0C014070B5064600250FE02E
:10080000284600F05DF805462946304600F043F9D9
:100810000446012C00D170BD0A2C01D10020FAE75A
:10082000EEE770B5064600250FE0284600F048F8D0
:1008300005462946304600F03AF90446012C00D11D
:1008400070BD0A2C01D10020FAE7EEE710B5024690
:100850000B46002104E0505C08B9012010BD491C82
:10086000505C5C5CA042F6D00020F7E7826B02B9D6
:100870007047816B03E0435C4A1E8354491C4A1E47
:10088000825C002AF7D1826B521E8263426B521E39
:10089000426300BFECE710B50A46416B03E0445CDD
:1008A0004B1CC454491E836B8B42F8DD836BC254CE
:1008B000836B5B1C8363436B5B1C436310BD000055
:1008C00070B506462B480078012803D10520FFF7B4
:1008D00013FD02E01420FFF70FFD27488068C4B223
:1008E00004F0800078B30120FFF706FD22488068FD
:1008F000C0B2A04201D0002070BD0120FFF7FCFC77
:100900001D488068C0B2A04201D00020F4E700205A
:100910001A49086004F0400020B104F03F00184973
:100920000D5C03E004F03F0016490D5C66B1AE4279
:100930000AD11048007810B91420FFF7DDFC01201F
:100940000C49087003E004E000200A4908702846BA
:10095000D2E70A480068B0F5967F03D10020054928
:10096000087004E005480068401C04490860002045
:10097000C2E7000000000020001001400400002039
:100980004F0B0008260B000870B504460D46202DBD
:100990002DDB7F2D2BDCD4E90D10884210D1606B4C
:1009A00025540021606B401C215429460120FFF78B
:1009B00003FF606B401C6063A06B401CA06314E0ED
:1009C000FFF7E6FE0646D4E90D12881A3146FFF716
:1009D0007AFC29460120FFF7EFFEA16B0819FFF70B
:1009E00097FE29462046FFF756FF002070BD1B2DBD
:1009F00001D10120FAE70DB90020F7E70A2D01D156
:100A00000020F3E7802D01D10020EFE7812D01D1F7
:100A10000020EBE7822D0CD1A06B08B90020E5E7A0
:100A200010210020FFF7C8FEA06B401EA06300202D
:100A3000DCE7832D0ED1D4E90D01884201D10020DD
:100A4000D4E714210020FFF7B7FEA06B401CA06381
:100A50000020CBE7082D14D1A06B80B1FFF798FEE2
:100A6000461ED4E90D12891A481C3146FFF72BFCAB
:100A7000A16B0819FFF74CFE2046FFF7F7FE002098
:100A8000B4E7842D01D10020B0E7852D01D10020ED
:100A9000ACE70220AAE770B505460C460A2C01D146
:100AA0000A2070BD21462846FFF76EFFF9E770B5B2
:100AB00004460D460A2D01D10A2070BD202D2DDBE4
:100AC0007F2D2BDCD4E90D10884210D1606B2554AA
:100AD0000021606B401C21542A210120FFF76CFE8D
:100AE000606B401C6063A06B401CA06314E0FFF7C8
:100AF0004FFE0646D4E90D12881A3146FFF7E3FB94
:100B00002A210120FFF758FEA16B0819FFF700FE0C
:100B100029462046FFF7BFFE0020CEE729462046A3
:100B2000FFF732FFC9E73132717761737A78333476
:100B3000657264666376353674796768626E3738D5
:100B400075696A6B6D1B39306F706C0A8081842106
:100B500040515741535A5823244552444643562541
:100B60005E54594748424E262A55494A4B4D202843
:100B7000294F504C08828385980B00080000002004
:100B8000080000006C010008A00B0008080000200D
:100B9000A004000088010008000000000000000020
:04000005080001CD21
:00000001FF
