:020000040800F2
:10000000880F0020CD010008D1010008D3010008AD
:10001000D5010008D7010008D90100080000000040
:10002000000000000000000000000000DB010008EC
:10003000DD01000800000000DF010008E101000808
:10004000E3010008E3010008E3010008E301000800
:10005000E3010008E3010008E3010008E3010008F0
:10006000E3010008E3010008E3010008E3010008E0
:10007000E3010008E3010008E3010008E3010008D0
:10008000E3010008E3010008E3010008E3010008C0
:10009000E3010008E3010008E3010008E3010008B0
:1000A000E3010008E3010008E3010008E3010008A0
:1000B000E3010008E3010008E3010008E301000890
:1000C000E3010008E3010008E3010008E301000880
:1000D000E3010008E3010008E3010008E301000870
:1000E000E3010008E3010008E3010008E301000860
:1000F000E3010008E3010008E3010008E301000850
:10010000E3010008E3010008E3010008E30100083F
:10011000E3010008E3010008E3010008E30100082F
:10012000E3010008E3010008E3010008E30100081F
:1001300000F002F800F03AF80AA090E8000C8244BF
:100140008344AAF10107DA4501D100F02FF8AFF29C
:10015000090EBAE80F0013F0010F18BFFB1A43F0A5
:1001600001031847D4130000F4130000103A24BF11
:1001700078C878C1FAD8520724BF30C830C144BF0C
:1001800004680C607047000000230024002500264E
:10019000103A28BF78C1FBD8520728BF30C148BFEA
:1001A0000B6070471FB51FBD10B510BD00F084F87F
:1001B0001146FFF7F7FF00F0C3FC00F0A2F803B40C
:1001C000FFF7F2FF03BC00F0A9F800000848004761
:1001D000FEE7FEE7FEE7FEE7FEE7FEE7FEE7FEE7F7
:1001E000FEE7FEE703480449024A044B704700005B
:1001F00031010008880B0020880F0020880B0020A8
:1002000010B5203AC0F00B80B1E81850203AA0E8B1
:100210001850B1E81850A0E81850BFF4F5AF5FEAE5
:10022000027C24BFB1E81850A0E8185044BF18C998
:1002300018C0BDE810405FEA827C24BF51F8043B3F
:1002400040F8043B08BF7047D20728BF31F8023B93
:1002500048BF11F8012B28BF20F8023B48BF00F827
:10026000012B70474FF0000200B5134694469646A6
:10027000203922BFA0E80C50A0E80C50B1F12001B9
:10028000BFF4F7AF090728BFA0E80C5048BF0CC067
:100290005DF804EB890028BF40F8042B08BF7047C5
:1002A00048BF20F8022B11F0804F18BF00F8012B37
:1002B0007047704770477047754600F02BF8AE46A0
:1002C00005006946534620F00700854618B020B562
:1002D000FFF788FFBDE820404FF000064FF0000711
:1002E0004FF000084FF0000B21F00701AC46ACE8DE
:1002F000C009ACE8C009ACE8C009ACE8C0098D464B
:10030000704710B50446AFF300802046BDE81040AA
:10031000FFF755BF00487047280B002001491820FF
:10032000ABBEFEE726000200704770B505460C46DE
:10033000E0B240F08001002000F0B2FC002604E0B2
:100340002021012000F0ACFC761CAE42F8D3E0B2D4
:1003500040F08001002000F0A3FC70BD002100E00F
:10036000491C42F2107242438A42F9D87047000099
:1003700010B598B004460121002000F091FCC7A000
:1003800000F0F3FB89E100208DF82400169017900F
:1003900009A800F0A5FC012801D118B010BDC0A12A
:1003A00009A800F0C7FC58B10121002000F078FC3A
:1003B000BDA000F0DAFB8221002000F071FC6CE1AE
:1003C000BCA109A800F0B6FC78B10121002000F022
:1003D00067FCBAA000F0C9FB4FF48040BA4908603E
:1003E0008221002000F05CFC57E1B8A109A800F0D0
:1003F000A1FC80B10121002000F052FCB5A000F06A
:10040000B4FB4FF48040B049091D086082210020F0
:1004100000F046FC41E1B2A109A800F08BFC78B1E4
:100420000121002000F03CFCB0A000F09EFB4FF446
:100430008070A54908608221002000F031FC2CE189
:10044000AEA109A800F076FC80B10121002000F0E7
:1004500027FCADA000F089FB4FF480709A49091D7C
:1004600008608221002000F01BFC16E1AAA109A867
:1004700000F060FC58B10121002000F011FCA8A0A0
:1004800000F073FB8221002000F00AFC05E1A9A125
:1004900009A800F04FFC78B10121002000F000FC19
:1004A000A6A000F062FBEF21012000F0F9FB822101
:1004B000002000F0F5FBF0E006AB07AA08A909A8A8
:1004C00000F0F5FC30B30121002000F0E9FB9FA013
:1004D00000F04BFB01A9079800F05EFB01A800F0BB
:1004E00044FB9BA000F041FB01A9069800F054FBDF
:1004F00001A800F03AFB97A000F037FB01A908988B
:1005000000F04AFB01A800F030FB8221002000F03F
:10051000C7FBC2E006AB07AA08A909A800F073FC54
:1005200030B30121002000F0BBFB88A000F01DFBD0
:1005300001A9079800F030FB01A800F016FB86A087
:1005400000F013FB01A9069800F026FB01A800F0BB
:100550000CFB80A000F009FB01A9089800F01CFB2F
:1005600001A800F002FB8221002000F099FB94E03A
:1005700006AB07AA08A909A800F0F7FB30B30121D0
:10058000002000F08DFB71A000F0EFFA01A90798A0
:1005900000F002FB01A800F0E8FA70A000F0E5FA14
:1005A00001A9069800F0F8FA01A800F0DEFA69A0A7
:1005B00000F0DBFA01A9089800F0EEFA01A800F0BB
:1005C000D4FA8221002000F06BFB66E006AB07AA9C
:1005D00008A909A800F0F0FB30B30121002000F0C9
:1005E0005FFB5AA000F0C1FA01A9079800F0D4FA05
:1005F00001A800F0BAFA5AA000F0B7FA01A90698CB
:1006000000F0CAFA01A800F0B0FA52A000F0ADFA6A
:1006100001A9089800F0C0FA01A800F0A6FA82210A
:10062000002000F03DFB38E006AB07AA08A909A8A6
:1006300000F00FFC30B30121002000F031FB43A09B
:1006400000F093FA01A9079800F0A6FA01A800F0BB
:100650008CFA44A000F089FA01A9069800F09CFAEF
:1006600001A800F082FA3BA000F07FFA01A90898E7
:1006700000F092FA01A800F078FA8221002000F040
:100680000FFB0AE00121002000F00AFB36A000F079
:100690006CFA8221002000F003FB74E624200000A5
:1006A000726967687400000024200A7269676874C0
:1006B0000000000066616E206F6E000024200A6654
:1006C000616E206F6E000000100C014066616E20AC
:1006D0006F66660024200A66616E206F6666000001
:1006E00062757A7A6572206F6E00000024200A62BB
:1006F000757A7A6572206F6E0000000062757A7AF2
:100700006572206F6666000024200A62757A7A6539
:1007100072206F6666000000706C75730000000048
:1007200024200A206368617261637465723A202B29
:1007300000000000656D6F6A6900000024200A2037
:100740006368617261637465723A200024200A0054
:10075000202B2000203D2000202D2000202A2000DA
:10076000202F2000205E200024200A6572726F7204
:100770000000000010B50120784908700220487080
:10078000042088700820C870102008714871887192
:10079000C8711F2008720021704841728172C172B5
:1007A0000121017302214173042181730521C17369
:1007B0001F206A490874002168484174817410211F
:1007C000C17400210175417581751021C17510201A
:1007D0006249087608216148417604218176022128
:1007E000C1760121017741778177C17710205B497C
:1007F00081F820001021594880F8211080F822103B
:1008000080F82310082180F82410042180F8251096
:10081000022180F82610012180F8271004204F497A
:1008200081F8280004214D4880F8291080F82A100A
:10083000022180F82B10012180F82C10002180F873
:100840002D1080F82E101F2180F82F10082043490A
:1008500081F830000421414880F8311080F83210CE
:10086000082180F83310102180F83410002180F81E
:10087000351080F836101F2180F8371001203749D5
:1008800081F838000121354880F8391080F83A1095
:1008900080F83B10022180F83C10042180F83D10C4
:1008A000082180F83E10102180F83F1000F022F956
:1008B0000121002000F0F4F98621002000F0F0F979
:1008C0000021012000F0ECF90121084600F0E8F9D0
:1008D0000221012000F0E4F90321012000F0E0F9F9
:1008E000C621002000F0DCF90421012000F0D8F935
:1008F0000521012000F0D4F90621012000F0D0F9F3
:100900000721012000F0CCF90C21002000F0C8F9EB
:100910003220FFF723FD002407E06420FFF71EFDCF
:100920001821002000F0BCF9641C042CF5DB6420C5
:10093000FFF714FD002407E01E20FFF70FFD1C2128
:10094000002000F0ADF9641C0E2CF5DB1420FFF73D
:1009500005FD0F21002000F0A3F910BD08000020C4
:100960000020704710B59EB004463C210FA8FFF749
:1009700079FC3C216846FFF775FC27E00121002047
:1009800000F08EF912A000F0F0F88521002000F0B0
:1009900087F90FA800F0A4F9012801D11EB010BDFD
:1009A000C721002000F07CF9684600F0AEF901286C
:1009B00000D1F3E70AA10FA800F0BCF930B109A1FA
:1009C000684600F0B7F908B10020E7E7D6E7000075
:1009D000757365723A0A7061737377643A00000048
:1009E000616263003132330010B5D6B0142217496A
:1009F00051A8FFF705FC1422144914314CA8FFF745
:100A0000FFFB4FF496721149283101A8FFF7F8FB5C
:100A1000002407E0002004EB44010D4A02EB011121
:100A2000C862641C082CF5DB4CA951A800F0B6FA8A
:100A300010B1012056B010BD01A951A800F078FCFA
:100A400008B10120F6E70020F4E70000E4130008F5
:100A5000A809002010B51B48806940F0080019491A
:100A600088610846806940F010008861164817497F
:100A700008600020C8604FF0333015490860091D38
:100A800008604FF482401249143108603821002078
:100A900000F006F90621002000F002F90F210020E5
:100AA00000F0FEF80121002000F0FAF8FFF79CFFAB
:100AB000012806D10121002000F0F2F805A000F085
:100AC00054F810BD0010024044444484001001401A
:100AD000000C014063726173680A66696C6520737B
:100AE000797374656D206E6F7420737563636565CB
:100AF0006400000070B500F0BFF80646002413E063
:100B0000402000EBC400C1B2002000F0C9F800256D
:100B100007E00A4800EBC400415D012000F0C0F886
:100B20006D1C082DF5DB641C082CE9DBF0B240F0ED
:100B30008001002000F0B4F870BD00000800002023
:100B400012E0FFF787FFFFF715FE2046FFF70AFFC9
:100B5000012800D108E02046FFF70AFC012800D157
:100B600002E0FFF7FDFE00BFEBE730B505460024CD
:100B70000EE0285D0A2805D1C021002000F090F881
:100B8000641C05E0295D012000F08AF8641C00BFA8
:100B9000285D0028EDD130BDF0B502460D46002697
:100BA0000DE00120002403E000EB80077800641CC6
:100BB000B442F9DB92FBF0F707B901E0761CF0E7ED
:100BC00000BF0023711E12E00120002403E000EBAF
:100BD00080077800641C8C42F9DB92FBF0F7303719
:100BE000EF5492FBF0F707FB10225B1C491E002913
:100BF000EADA0027EF54F0BD30B5044600F03CF8C7
:100C000005462046FFF7B1FF05F18000C1B2002084
:100C100000F046F830BD000010B50146134B144CEF
:100C20002360144B241D2360E314114C14342360FF
:100C30004FF4C06343EAC123241F2360002200E075
:100C4000521C642AFCDB0A4B08331B6803F0E703E1
:100C5000074C0834246804F4405443EA54204FF00D
:100C60003333034C2360241D236010BD44344344BC
:100C7000000C01403333443310B5002400E0641C01
:100C8000B4F57A6FFBDB0020FFF7C6FF00F07F00B2
:100C900010BD00B50020FFF7BFFF00F0800000BDD1
:100CA00030B505460C4600BFFFF7F3FF00F08000AB
:100CB0000028F9D10948006800F4824040EAC520C4
:100CC00040F48060204304F0180140EA41200349C9
:100CD0000860081501490831086030BD0C0C01405E
:100CE00070B5064600250FE0284600F0B3F905462A
:100CF0002946304600F099FA0446012C00D170BD17
:100D00000A2C01D10020FAE7EEE770B5064600256F
:100D10000FE0284600F09EF905462946304600F0CF
:100D200090FA0446012C00D170BD0A2C01D100209C
:100D3000FAE7EEE710B502460B46002104E0505CEE
:100D400008B9012010BD491C505C5C5CA042F6D083
:100D50000020F7E70246002002E0135C0B54401C21
:100D6000135C002BF9D10B5470472DE9F047044672
:100D7000884691469A4600251DE0605D2A2815D1D7
:100D800000206055204600F0E9F80646691C60180E
:100D900000F0E4F8074606FB07F0C8F80000C9F8C1
:100DA0000060CAF800700120BDE8F087605D08B9F6
:100DB0000020F9E76D1CE0E72DE9F047044688467E
:100DC00091469A4600251DE0605D2F2815D1002030
:100DD0006055204600F0C2F80646691C601800F015
:100DE000BDF80746C9F80060CAF8007096FBF7F036
:100DF000C8F800000120BDE8F087605D08B9002058
:100E0000F9E76D1CE0E72DE9F04704468846914676
:100E10009A4600251CE0605D2D2814D10020605505
:100E2000204600F09BF80646691C601800F096F812
:100E30000746C9F80060CAF80070F01BC8F8000047
:100E40000120BDE8F087605D08B90020F9E76D1C5E
:100E5000E1E72DE9FF4F04468A469346002525E049
:100E6000605D5E281DD100206055204600F076F8B8
:100E70008046691C601800F071F806464FF00109C1
:100E8000002702E009FB08F97F1CB742FADBCAF829
:100E90000090CBF8008003980660012004B0BDE804
:100EA000F08F605D08B90020F8E76D1CD8E72DE9E8
:100EB000F0470446884691469A4600251CE0605D4E
:100EC0002B2814D100206055204600F047F8064634
:100ED000691C601800F042F80746F019C8F80000D5
:100EE000C9F80060CAF800700120BDE8F087605DB5
:100EF00008B90020F9E76D1CE1E70146002000E099
:100F0000401C0A5C002AFBD17047826B02B9704713
:100F1000816B03E0435C4A1E8354491C4A1E825C79
:100F2000002AF7D1826B521E8263426B521E4263CB
:100F300000BFECE710B50A46416B03E0445C4B1C74
:100F4000C454491E836B8B42F8DD836BC254836BA0
:100F50005B1C8363436B5B1C436310BD2DE9F04353
:100F600004462046FFF7C9FF81464FF00008A9F16B
:100F7000010300250DE0E05CA0F13007002603E04E
:100F800007EB87004700761CAE42F9DBB8446D1CC6
:100F90005B1E002BEFDA4046BDE8F08370B50546D6
:100FA0000E46002412E004EB4400274901EB001038
:100FB000C06A50B904EB4401234A02EB01102946F0
:100FC000FFF7B8FE012800D170BD641C082CEADBD5
:100FD00000240CE0082C01D10220F5E704EB4400CA
:100FE000194901EB0010C06A00B901E0641CF1E787
:100FF00000BF04EB4400144A02EB00112846FFF73F
:10100000A9FE04EB4400104A02EB001000F11401A9
:101010003046FFF79FFE012004EB44010A4A02EB31
:101020000111C86204EB4400114601EB0010846218
:10103000C4EB041000EB8000044A02EB800104A022
:10104000FFF788FE0020BFE7A80900204800002025
:101050000000000070B506462B480078012803D137
:101060000520FFF77BF902E01420FFF777F9274806
:101070008068C4B204F0800078B30120FFF76EF9F5
:1010800022488068C0B2A04201D0002070BD01207B
:10109000FFF764F91D488068C0B2A04201D000206B
:1010A000F4E700201A49086004F0400020B104F081
:1010B0003F0018490D5C03E004F03F0016490D5C49
:1010C00066B1AE420AD11048007810B91420FFF77B
:1010D00045F901200C49087003E004E000200A49AA
:1010E00008702846D2E70A480068B0F5967F03D119
:1010F00000200549087004E005480068401C0449C8
:1011000008600020C2E7000000000020001001403D
:1011100004000020B91300089013000870B50446BD
:101120000D46202D2DDB7F2D2BDCD4E90D108842C0
:1011300010D1606B25540021606B401C215429465E
:101140000120FFF7ADFD606B401C6063A06B401C8D
:10115000A06314E0FFF790FD0646D4E90D12881A4B
:101160003146FFF7E2F829460120FFF799FDA16B10
:101170000819FFF741FD29462046FFF7DBFE002056
:1011800070BD1B2D01D10120FAE70DB90020F7E752
:101190000A2D01D10020F3E7802D01D10020EFE7D7
:1011A000812D01D10020EBE7822D0CD1A06B08B975
:1011B0000020E5E710210020FFF772FDA06B401E24
:1011C000A0630020DCE7832D0ED1D4E90D01884215
:1011D00001D10020D4E714210020FFF761FDA06BAE
:1011E000401CA0630020CBE7082D14D1A06B80B178
:1011F000FFF742FD461ED4E90D12891A481C3146FC
:10120000FFF793F8A16B0819FFF7F6FC2046FFF7EC
:101210007CFE0020B4E7842D01D10020B0E7852DAD
:1012200001D10020ACE70220AAE770B505460C46C4
:101230000A2C01D10A2070BD21462846FFF76EFF17
:10124000F9E72DE9F04186B004460E460A2E03D197
:101250000A2006B0BDE8F081202E3CDB7F2E3ADC70
:10126000D4E90D10884210D1606B26540021606BC8
:10127000401C21542A210120FFF712FD606B401C05
:101280006063A06B401CA06323E0FFF7F5FC804681
:10129000D4E90D12881A4146FFF747F82A210120A8
:1012A000FFF7FEFCA16B0819FFF727FE0746002594
:1012B00003E02A2001A948556D1CBD42F9DB00203E
:1012C00001A9485501A8FFF797FC31462046FFF7D2
:1012D00031FE0020BDE7082E24D1A06B00B3FFF73C
:1012E000CBFCA0F10108D4E90D12891A481C414633
:1012F000FFF71BF8A16B0819FFF7FFFD0746002554
:1013000003E02A2001A948556D1CBD42F9DB0020ED
:1013100001A9485501A8FFF76FFC2046FFF7F5FD2E
:10132000002096E731462046FFF7F8FE91E70000DF
:1013300070B505460E46002417E0082C01D10120A7
:1013400070BD04EB4400104901EB0010C06A012895
:101350000AD104EB44010C4A02EB01102946FFF7C5
:10136000E9FC012800D101E0641CE6E700BFC4EB02
:10137000041000EB8000054A02EB80013046FFF7C5
:10138000E9FC0020DCE70000A8090020480000205C
:101390003132717761737A7833346572646663765B
:1013A000353674796768626E373875696A6B6D1B9C
:1013B00039306F706C0A8081842B2D515741535AFC
:1013C000582324455244464356255E5459474842C3
:1013D0004E2F2A55494A4B4D2028294F504C088200
:1013E00083850000726F6F74000000000000000031
:1013F000000000000000000075736572000000002E
:10140000000000000000000000000000726F6F7418
:101410003A3132330A6162633A3132333435000093
:1014200000000000000000000000000000000000BC
:1014300000000000000000000000000000000000AC
:10144000000000000000000000000000000000009C
:10145000000000000000000000000000000000008C
:10146000000000000000000000000000000000007C
:10147000000000000000000000000000000000006C
:10148000000000000000000000000000000000005C
:10149000000000000000000000000000000000004C
:1014A000000000000000000000000000000000003C
:1014B000000000000000000000000000000000002C
:1014C000000000000000000000000000000000001C
:1014D000000000000000000000000000000000000C
:1014E00000000000000000000000000000000000FC
:1014F00000000000000000000000000000000000EC
:1015000000000000000000000000000000000000DB
:1015100000000000000000000000000000000000CB
:1015200000000000000000000000000000000000BB
:101530000000000000000000581500080000002016
:10154000080000006C010008601500080800002079
:10155000800F00008801000800000000000000006B
:04000005080001CD21
:00000001FF
