:020000040800F2
:10000000480F0020CD010008D1010008D3010008ED
:10001000D5010008D7010008D90100080000000040
:10002000000000000000000000000000DB010008EC
:10003000DD01000800000000DF010008E101000808
:10004000E3010008E3010008E3010008E301000800
:10005000E3010008E3010008E3010008E3010008F0
:10006000E3010008E3010008E3010008E3010008E0
:10007000E3010008E3010008E3010008E3010008D0
:10008000E3010008E3010008E3010008E3010008C0
:10009000E3010008E3010008E3010008E3010008B0
:1000A000E3010008E3010008E3010008E3010008A0
:1000B000E3010008E3010008E3010008E301000890
:1000C000E3010008E3010008E3010008E301000880
:1000D000E3010008E3010008E3010008E301000870
:1000E000E3010008E3010008E3010008E301000860
:1000F000E3010008E3010008E3010008E301000850
:10010000E3010008E3010008E3010008E30100083F
:10011000E3010008E3010008E3010008E30100082F
:10012000E3010008E3010008E3010008E30100081F
:1001300000F002F800F03AF80AA090E8000C8244BF
:100140008344AAF10107DA4501D100F02FF8AFF29C
:10015000090EBAE80F0013F0010F18BFFB1A43F0A5
:1001600001031847E80B0000080C0000103A24BFF8
:1001700078C878C1FAD8520724BF30C830C144BF0C
:1001800004680C607047000000230024002500264E
:10019000103A28BF78C1FBD8520728BF30C148BFEA
:1001A0000B6070471FB51FBD10B510BD00F084F87F
:1001B0001146FFF7F7FF00F0E7F900F0A2F803B4EB
:1001C000FFF7F2FF03BC00F0A9F800000848004761
:1001D000FEE7FEE7FEE7FEE7FEE7FEE7FEE7FEE7F7
:1001E000FEE7FEE703480449024A044B704700005B
:1001F00031010008480B0020480F0020480B002068
:1002000010B5203AC0F00B80B1E81850203AA0E8B1
:100210001850B1E81850A0E81850BFF4F5AF5FEAE5
:10022000027C24BFB1E81850A0E8185044BF18C998
:1002300018C0BDE810405FEA827C24BF51F8043B3F
:1002400040F8043B08BF7047D20728BF31F8023B93
:1002500048BF11F8012B28BF20F8023B48BF00F827
:10026000012B70474FF0000200B5134694469646A6
:10027000203922BFA0E80C50A0E80C50B1F12001B9
:10028000BFF4F7AF090728BFA0E80C5048BF0CC067
:100290005DF804EB890028BF40F8042B08BF7047C5
:1002A00048BF20F8022B11F0804F18BF00F8012B37
:1002B0007047704770477047754600F02BF8AE46A0
:1002C00005006946534620F00700854618B020B562
:1002D000FFF788FFBDE820404FF000064FF0000711
:1002E0004FF000084FF0000B21F00701AC46ACE8DE
:1002F000C009ACE8C009ACE8C009ACE8C0098D464B
:10030000704710B50446AFF300802046BDE81040AA
:10031000FFF755BF00487047E80A00200149182040
:10032000ABBEFEE726000200704770B505460C46DE
:10033000E0B240F08001002000F0A4F9002604E0C3
:100340002021012000F09EF9761CAE42F8D3E0B2E5
:1003500040F08001002000F095F970BD002100E020
:10036000491C42F2107242438A42F9D87047000099
:1003700010B590B004460121002000F083F916A0CA
:1003800000F015F927E000208DF804000E900F9082
:1003900001A800F097F9012801D110B010BD0FA1FC
:1003A00001A800F0B9F958B10121002000F06AF964
:1003B0000CA000F0FCF88221002000F063F90AE0B4
:1003C0000121002000F05EF909A000F0F0F8822180
:1003D000002000F057F9D6E7242000007269676812
:1003E0007400000024200A7269676874000000002D
:1003F00024200A6572726F720000000000207047AE
:1004000010B59EB004463C210FA8FFF72BFF3C21FE
:100410006846FFF727FF27E00121002000F032F9AE
:1004200012A000F0C4F88521002000F02BF90FA8DD
:1004300000F048F9012801D11EB010BDC7210020ED
:1004400000F020F9684600F052F9012800D1F3E7E6
:100450000AA10FA800F060F930B109A1684600F0C8
:100460005BF908B10020E7E7D6E700007573657215
:100470003A0A7061737377643A0000006162630046
:100480003132330010B5D6B01422174951A8FFF706
:10049000B7FE1422144914314CA8FFF7B1FE4FF4F3
:1004A00096721149283101A8FFF7AAFE002407E03F
:1004B000002004EB44010D4A02EB0111C862641CE8
:1004C000082CF5DB4CA951A800F072F910B10120FD
:1004D00056B010BD01A951A800F034FB08B10120AD
:1004E000F6E70020F4E70000F80B00086809002098
:1004F00010B51948806940F008001749886108461E
:10050000806940F010008861144815490860002097
:10051000C8604FF0333013490860091D0860382166
:10052000002000F0AFF80621002000F0ABF80F210A
:10053000002000F0A7F80121002000F0A3F8FFF749
:10054000A1FF012806D10121002000F09BF806A0A0
:1005500000F02DF810BD0000001002404444448417
:1005600000100140000C014063726173680A666903
:100570006C652073797374656D206E6F742073756C
:10058000636365656400000010E0FFF7B1FF20467B
:10059000FFF736FF012800D108E02046FFF7E8FE0C
:1005A000012800D102E0FFF729FF00BFEDE730B5D9
:1005B000054600240EE0285D0A2805D1C021002050
:1005C00000F060F8641C05E0295D012000F05AF895
:1005D000641C00BF285D0028EDD130BD30B5044655
:1005E00000F03CF805462046FFF7E1FF05F18000EA
:1005F000C1B2002000F046F830BD000010B5014641
:10060000134B144C2360144B241D2360E314114C32
:10061000143423604FF4C06343EAC123241F2360D2
:10062000002200E0521C642AFCDB0A4B08331B68E2
:1006300003F0E703074C0834246804F4405443EA09
:1006400054204FF03333034C2360241D236010BD2E
:1006500044344344000C01403333443310B5002488
:1006600000E0641CB4F57A6FFBDB0020FFF7C6FFE7
:1006700000F07F0010BD00B50020FFF7BFFF00F0C5
:10068000800000BD30B505460C4600BFFFF7F3FF04
:1006900000F080000028F9D109480068002040EAF5
:1006A000C52040F48060204304F0180140EA412056
:1006B00003490860081502490831086030BD000090
:1006C0000C0C014070B5064600250FE0284600F0EE
:1006D000CBF805462946304600F0B1F90446012C16
:1006E00000D170BD0A2C01D10020FAE7EEE770B509
:1006F000064600250FE0284600F0B6F805462946D4
:10070000304600F0A8F90446012C00D170BD0A2C37
:1007100001D10020FAE7EEE710B502460B460021B2
:1007200004E0505C08B9012010BD491C505C5C5CC1
:10073000A042F6D00020F7E70246002002E0135C5A
:100740000B54401C135C002BF9D10B54704701462D
:10075000002000E0401C0A5C002AFBD17047826B3D
:1007600002B97047816B03E0435C4A1E8354491C05
:100770004A1E825C002AF7D1826B521E8263426B52
:10078000521E426300BFECE710B50A46416B03E01E
:10079000445C4B1CC454491E836B8B42F8DD836B55
:1007A000C254836B5B1C8363436B5B1C436310BD50
:1007B00070B505460E46002412E004EB44002749BC
:1007C00001EB0010C06A50B904EB4401234A02EB6C
:1007D00001102946FFF7A0FF012800D170BD641C5D
:1007E000082CEADB00240CE0082C01D10220F5E7FC
:1007F00004EB4400194901EB0010C06A00B901E0A4
:10080000641CF1E700BF04EB4400144A02EB001142
:100810002846FFF791FF04EB4400104A02EB00105A
:1008200000F114013046FFF787FF012004EB44017B
:100830000A4A02EB0111C86204EB4400114601EBC5
:1008400000108462C4EB041000EB8000044A02EB49
:10085000800104A0FFF770FF0020BFE768090020B7
:10086000080000200000000070B506462B48007804
:10087000012803D10520FFF771FD02E01420FFF7E6
:100880006DFD27488068C4B204F0800078B3012071
:10089000FFF764FD22488068C0B2A04201D000206A
:1008A00070BD0120FFF75AFD1D488068C0B2A0420C
:1008B00001D00020F4E700201A49086004F040004D
:1008C00020B104F03F0018490D5C03E004F03F0044
:1008D00016490D5C66B1AE420AD11048007810B9D5
:1008E0001420FFF73BFD01200C49087003E004E0F1
:1008F00000200A4908702846D2E70A480068B0F587
:10090000967F03D100200549087004E0054800687F
:10091000401C044908600020C2E7000000000020DD
:100920000010014004000020CD0B0008A40B0008BB
:1009300070B504460D46202D2DDB7F2D2BDCD4E930
:100940000D10884210D1606B25540021606B401C53
:10095000215429460120FFF795FE606B401C60631F
:10096000A06B401CA06314E0FFF778FE0646D4E9B4
:100970000D12881A3146FFF7D8FC29460120FFF7EF
:1009800081FEA16B0819FFF729FE29462046FFF7D3
:10099000FBFE002070BD1B2D01D10120FAE70DB92F
:1009A0000020F7E70A2D01D10020F3E7802D01D1C7
:1009B0000020EFE7812D01D10020EBE7822D0CD143
:1009C000A06B08B90020E5E710210020FFF75AFED0
:1009D000A06B401EA0630020DCE7832D0ED1D4E97C
:1009E0000D01884201D10020D4E714210020FFF737
:1009F00049FEA06B401CA0630020CBE7082D14D15A
:100A0000A06B80B1FFF72AFE461ED4E90D12891AA9
:100A1000481C3146FFF789FCA16B0819FFF7DEFD82
:100A20002046FFF79CFE0020B4E7842D01D1002072
:100A3000B0E7852D01D10020ACE70220AAE770B510
:100A400005460C460A2C01D10A2070BD21462846D5
:100A5000FFF76EFFF9E72DE9F04186B004460E4638
:100A60000A2E03D10A2006B0BDE8F081202E3CDB1F
:100A70007F2E3ADCD4E90D10884210D1606B2654E9
:100A80000021606B401C21542A210120FFF7FAFD50
:100A9000606B401C6063A06B401CA06323E0FFF709
:100AA000DDFD8046D4E90D12881A4146FFF73DFC72
:100AB0002A210120FFF7E6FDA16B0819FFF747FE89
:100AC0000746002503E02A2001A948556D1CBD42B8
:100AD000F9DB002001A9485501A8FFF77FFD314649
:100AE0002046FFF751FE0020BDE7082E24D1A06B61
:100AF00000B3FFF7B3FDA0F10108D4E90D12891A84
:100B0000481C4146FFF711FCA16B0819FFF71FFEB7
:100B10000746002503E02A2001A948556D1CBD4267
:100B2000F9DB002001A9485501A8FFF757FD204631
:100B3000FFF715FE002096E731462046FFF7F8FE46
:100B400091E7000070B505460E46002417E0082C1A
:100B500001D1012070BD04EB4400104901EB0010ED
:100B6000C06A01280AD104EB44010C4A02EB0110CF
:100B70002946FFF7D1FD012800D101E0641CE6E71A
:100B800000BFC4EB041000EB8000054A02EB8001BB
:100B90003046FFF7D1FD0020DCE7000068090020A7
:100BA000080000203132717761737A7833346572CE
:100BB00064666376353674796768626E373875694E
:100BC0006A6B6D1B39306F706C0A808184214051D3
:100BD0005741535A582324455244464356255E54A0
:100BE000594748424E262A55494A4B4D2028294FFD
:100BF000504C088283850000726F6F740000000003
:100C00000000000000000000000000007573657225
:100C100000000000000000000000000000000000D4
:100C2000726F6F743A3132330A6162633A31323330
:100C3000343500000000000000000000000000004B
:100C400000000000000000000000000000000000A4
:100C50000000000000000000000000000000000094
:100C60000000000000000000000000000000000084
:100C70000000000000000000000000000000000074
:100C80000000000000000000000000000000000064
:100C90000000000000000000000000000000000054
:100CA0000000000000000000000000000000000044
:100CB0000000000000000000000000000000000034
:100CC0000000000000000000000000000000000024
:100CD0000000000000000000000000000000000014
:100CE0000000000000000000000000000000000004
:100CF00000000000000000000000000000000000F4
:100D000000000000000000000000000000000000E3
:100D100000000000000000000000000000000000D3
:100D200000000000000000000000000000000000C3
:100D300000000000000000000000000000000000B3
:100D40000000000000000000000000006C0D000822
:100D500000000020080000006C010008740D00086D
:100D600008000020400F000088010008000000007B
:040D7000000000007F
:04000005080001CD21
:00000001FF
