:020000040800F2
:10000000A8040020CD010008D1010008D301000898
:10001000D5010008D7010008D90100080000000040
:10002000000000000000000000000000DB010008EC
:10003000DD01000800000000DF010008E101000808
:10004000E3010008E3010008E3010008E301000800
:10005000E3010008E3010008E3010008E3010008F0
:10006000E3010008E3010008E3010008E3010008E0
:10007000E3010008E3010008E3010008E3010008D0
:10008000E3010008E3010008E3010008E3010008C0
:10009000E3010008E3010008E3010008E3010008B0
:1000A000E3010008E3010008E3010008E3010008A0
:1000B000E3010008E3010008E3010008E301000890
:1000C000E3010008E3010008E3010008E301000880
:1000D000E3010008E3010008E3010008E301000870
:1000E000E3010008E3010008E3010008E301000860
:1000F000E3010008E3010008E3010008E301000850
:10010000E3010008E3010008E3010008E30100083F
:10011000E3010008E3010008E3010008E30100082F
:10012000E3010008E3010008E3010008E30100081F
:1001300000F002F800F03AF80AA090E8000C8244BF
:100140008344AAF10107DA4501D100F02FF8AFF29C
:10015000090EBAE80F0013F0010F18BFFB1A43F0A5
:10016000010318471808000038080000103A24BF9F
:1001700078C878C1FAD8520724BF30C830C144BF0C
:1001800004680C607047000000230024002500264E
:10019000103A28BF78C1FBD8520728BF30C148BFEA
:1001A0000B6070471FB51FBD10B510BD00F052F8B1
:1001B0001146FFF7F7FF00F087F900F070F803B47D
:1001C000FFF7F2FF03BC00F077F800000848004793
:1001D000FEE7FEE7FEE7FEE7FEE7FEE7FEE7FEE7F7
:1001E000FEE7FEE703480449024A044B704700005B
:1001F00031010008A8000020A8040020A800002069
:100200004FF0000200B5134694469646203922BFAF
:10021000A0E80C50A0E80C50B1F12001BFF4F7AFFA
:10022000090728BFA0E80C5048BF0CC05DF804EBDC
:10023000890028BF40F8042B08BF704748BF20F84A
:10024000022B11F0804F18BF00F8012B7047704748
:1002500070477047754600F02BF8AE4605006946BA
:10026000534620F00700854618B020B5FFF7BAFFC7
:10027000BDE820404FF000064FF000074FF00008A7
:100280004FF0000B21F00701AC46ACE8C009ACE828
:10029000C009ACE8C009ACE8C0098D46704710B58C
:1002A0000446AFF300802046BDE81040FFF787BF4B
:1002B000004870474800002001491820ABBEFEE707
:1002C00026000200704770B505460C46E0B240F0CB
:1002D0008001002000F072F9002604E020210120B6
:1002E00000F06CF9761CAE42F8D3E0B240F0800129
:1002F000002000F063F970BD002100E0491C42F2CB
:10030000107242438A42F9D87047000000B58FB09E
:100310000121002000F052F916A000F0E4F827E0D7
:1003200000208DF800000D900E90684600F066F9F0
:10033000012801D10FB000BD0FA1684600F088F977
:1003400058B10121002000F039F90DA000F0CBF8E0
:100350008221002000F032F90AE00121002000F0A3
:100360002DF90AA000F0BFF88221002000F026F944
:10037000D6E700002420000072696768740000005E
:1003800024200A72696768740000000024200A654E
:1003900072726F720000000000B59FB03C2110A87F
:1003A000FFF72EFF3C2101A8FFF72AFF27E00121DC
:1003B000002000F003F912A000F095F8852100203C
:1003C00000F0FCF810A800F019F9012801D11FB0C5
:1003D00000BDC721002000F0F1F801A800F023F9CA
:1003E000012800D1F3E70AA110A800F031F930B1DB
:1003F00008A101A800F02CF908B10020E7E7D6E732
:10040000757365723A0A7061737377643A0000001D
:10041000616263003132330010B51448806940F0E6
:100420000800124988610846806940F01000886120
:100430000F48104908600020C8604FF033300E4963
:100440000860091D08603821002000F0B7F8062177
:10045000002000F0B3F80F21002000F0AFF80121D8
:10046000002000F0ABF800F009F810BD00100240C9
:100470004444448400100140000C014070B500F079
:1004800089F80646002413E0402000EBC400C1B206
:10049000002000F093F8002507E00A4800EBC400B4
:1004A000415D012000F08AF86D1C082DF5DB641C0D
:1004B000082CE9DBF0B240F08001002000F07EF86B
:1004C00070BD0000080000200CE0FFF7A5FFFFF75B
:1004D00063FF012800D105E0FFF718FF012800D1D4
:1004E00000E000BFF1E730B5054600240EE0285DCE
:1004F0000A2805D1C021002000F060F8641C05E046
:10050000295D012000F05AF8641C00BF285D002816
:10051000EDD130BD30B5044600F03CF8054620462C
:10052000FFF7E1FF05F18000C1B2002000F046F8BE
:1005300030BD000010B50146134B144C2360144B22
:10054000241D2360E314114C143423604FF4C06362
:1005500043EAC123241F2360002200E0521C642AC6
:10056000FCDB0A4B08331B6803F0E703074C083435
:10057000246804F4405443EA54204FF03333034CCE
:100580002360241D236010BD44344344000C01400B
:100590003333443310B5002400E0641CB4F57A6FA3
:1005A000FBDB0020FFF7C6FF00F07F0010BD00B5A9
:1005B0000020FFF7BFFF00F0800000BD30B505460A
:1005C0000C4600BFFFF7F3FF00F080000028F9D1D0
:1005D00009480068002040EAC52040F480602043BC
:1005E00004F0180140EA4120034908600815024957
:1005F0000831086030BD00000C0C014070B50646A3
:1006000000250FE0284600F05DF8054629463046F3
:1006100000F043F90446012C00D170BD0A2C01D131
:100620000020FAE7EEE770B5064600250FE0284601
:1006300000F048F805462946304600F03AF90446ED
:10064000012C00D170BD0A2C01D10020FAE7EEE7A1
:1006500010B502460B46002104E0505C08B90120A9
:1006600010BD491C505C5C5CA042F6D00020F7E74E
:10067000826B02B97047816B03E0435C4A1E83546E
:10068000491C4A1E825C002AF7D1826B521E82638B
:10069000426B521E426300BFECE710B50A46416B45
:1006A00003E0445C4B1CC454491E836B8B42F8DD51
:1006B000836BC254836B5B1C8363436B5B1C436320
:1006C00010BD000070B506462B480078012803D104
:1006D0000520FFF711FE02E01420FFF70DFE27486A
:1006E0008068C4B204F0800078B30120FFF704FEF4
:1006F00022488068C0B2A04201D0002070BD012015
:10070000FFF7FAFD1D488068C0B2A04201D000206A
:10071000F4E700201A49086004F0400020B104F01A
:100720003F0018490D5C03E004F03F0016490D5CE2
:1007300066B1AE420AD11048007810B91420FFF714
:10074000DBFD01200C49087003E004E000200A49A9
:1007500008702846D2E70A480068B0F5967F03D1B2
:1007600000200549087004E005480068401C044961
:1007700008600020C2E700000000002000100140D7
:1007800004000020530900082A09000870B5044637
:100790000D46202D2DDB7F2D2BDCD4E90D1088425A
:1007A00010D1606B25540021606B401C21542946F8
:1007B0000120FFF703FF606B401C6063A06B401CCF
:1007C000A06314E0FFF7E6FE0646D4E90D12881A8E
:1007D0003146FFF778FD29460120FFF7EFFEA16BB8
:1007E0000819FFF797FE29462046FFF756FF00201D
:1007F00070BD1B2D01D10120FAE70DB90020F7E7EC
:100800000A2D01D10020F3E7802D01D10020EFE770
:10081000812D01D10020EBE7822D0CD1A06B08B90E
:100820000020E5E710210020FFF7C8FEA06B401E66
:10083000A0630020DCE7832D0ED1D4E90D018842AE
:1008400001D10020D4E714210020FFF7B7FEA06BF0
:10085000401CA0630020CBE7082D14D1A06B80B111
:10086000FFF798FE461ED4E90D12891A481C31463E
:10087000FFF729FDA16B0819FFF74CFE2046FFF793
:10088000F7FE0020B4E7842D01D10020B0E7852DCC
:1008900001D10020ACE70220AAE770B505460C465E
:1008A0000A2C01D10A2070BD21462846FFF76EFFB1
:1008B000F9E770B504460D460A2D01D10A2070BD36
:1008C000202D2DDB7F2D2BDCD4E90D10884210D19B
:1008D000606B25540021606B401C21542A210120AB
:1008E000FFF76CFE606B401C6063A06B401CA06354
:1008F00014E0FFF74FFE0646D4E90D12881A314680
:10090000FFF7E1FC2A210120FFF758FEA16B08192F
:10091000FFF700FE29462046FFF7BFFE0020CEE786
:1009200029462046FFF732FFC9E7313271776173FC
:100930007A783334657264666376353674796768BD
:10094000626E373875696A6B6D1B39306F706C0A6F
:100950008081842140515741535A582324455244A1
:10096000464356255E54594748424E262A55494A21
:100970004B4D2028294F504C088283859C09000844
:1009800000000020480000006C010008E409000895
:1009900048000020600400008801000800000000FA
:1009A00000000000070800081C0807001F080008D6
:1009B0001C0807001F1F00081C0807001F081F084D
:1009C0001C0807001F08001F1C0807001F0800085C
:1009D0001F0807001F0800081C1F07000000000078
:0409E0000000000013
:04000005080001CD21
:00000001FF
